{
  "address": "0x52acf023d38A31f7e7bC92cCe5E68d36cC9752d6",
  "abi": [
    {
      "inputs": [],
      "stateMutability": "nonpayable",
      "type": "constructor"
    },
    {
      "anonymous": false,
      "inputs": [
        {
          "indexed": false,
          "internalType": "address",
          "name": "previousAdmin",
          "type": "address"
        },
        {
          "indexed": false,
          "internalType": "address",
          "name": "newAdmin",
          "type": "address"
        }
      ],
      "name": "AdminChanged",
      "type": "event"
    },
    {
      "anonymous": false,
      "inputs": [
        {
          "indexed": true,
          "internalType": "address",
          "name": "owner",
          "type": "address"
        },
        {
          "indexed": true,
          "internalType": "address",
          "name": "spender",
          "type": "address"
        },
        {
          "indexed": false,
          "internalType": "uint256",
          "name": "value",
          "type": "uint256"
        }
      ],
      "name": "Approval",
      "type": "event"
    },
    {
      "anonymous": false,
      "inputs": [
        {
          "indexed": true,
          "internalType": "address",
          "name": "beacon",
          "type": "address"
        }
      ],
      "name": "BeaconUpgraded",
      "type": "event"
    },
    {
      "anonymous": false,
      "inputs": [
        {
          "indexed": false,
          "internalType": "uint8",
          "name": "version",
          "type": "uint8"
        }
      ],
      "name": "Initialized",
      "type": "event"
    },
    {
      "anonymous": false,
      "inputs": [
        {
          "indexed": true,
          "internalType": "address",
          "name": "previousOwner",
          "type": "address"
        },
        {
          "indexed": true,
          "internalType": "address",
          "name": "newOwner",
          "type": "address"
        }
      ],
      "name": "OwnershipTransferred",
      "type": "event"
    },
    {
      "anonymous": false,
      "inputs": [
        {
          "indexed": false,
          "internalType": "address",
          "name": "account",
          "type": "address"
        }
      ],
      "name": "Paused",
      "type": "event"
    },
    {
      "anonymous": false,
      "inputs": [
        {
          "indexed": false,
          "internalType": "uint256",
          "name": "id",
          "type": "uint256"
        }
      ],
      "name": "Snapshot",
      "type": "event"
    },
    {
      "anonymous": false,
      "inputs": [
        {
          "indexed": true,
          "internalType": "address",
          "name": "from",
          "type": "address"
        },
        {
          "indexed": true,
          "internalType": "address",
          "name": "to",
          "type": "address"
        },
        {
          "indexed": false,
          "internalType": "uint256",
          "name": "value",
          "type": "uint256"
        }
      ],
      "name": "Transfer",
      "type": "event"
    },
    {
      "anonymous": false,
      "inputs": [
        {
          "indexed": false,
          "internalType": "address",
          "name": "account",
          "type": "address"
        }
      ],
      "name": "Unpaused",
      "type": "event"
    },
    {
      "anonymous": false,
      "inputs": [
        {
          "indexed": true,
          "internalType": "address",
          "name": "implementation",
          "type": "address"
        }
      ],
      "name": "Upgraded",
      "type": "event"
    },
    {
      "inputs": [],
      "name": "DOMAIN_SEPARATOR",
      "outputs": [
        {
          "internalType": "bytes32",
          "name": "",
          "type": "bytes32"
        }
      ],
      "stateMutability": "view",
      "type": "function"
    },
    {
      "inputs": [
        {
          "internalType": "address",
          "name": "owner",
          "type": "address"
        },
        {
          "internalType": "address",
          "name": "spender",
          "type": "address"
        }
      ],
      "name": "allowance",
      "outputs": [
        {
          "internalType": "uint256",
          "name": "",
          "type": "uint256"
        }
      ],
      "stateMutability": "view",
      "type": "function"
    },
    {
      "inputs": [
        {
          "internalType": "address",
          "name": "spender",
          "type": "address"
        },
        {
          "internalType": "uint256",
          "name": "amount",
          "type": "uint256"
        }
      ],
      "name": "approve",
      "outputs": [
        {
          "internalType": "bool",
          "name": "",
          "type": "bool"
        }
      ],
      "stateMutability": "nonpayable",
      "type": "function"
    },
    {
      "inputs": [
        {
          "internalType": "address",
          "name": "account",
          "type": "address"
        }
      ],
      "name": "balanceOf",
      "outputs": [
        {
          "internalType": "uint256",
          "name": "",
          "type": "uint256"
        }
      ],
      "stateMutability": "view",
      "type": "function"
    },
    {
      "inputs": [
        {
          "internalType": "address",
          "name": "account",
          "type": "address"
        },
        {
          "internalType": "uint256",
          "name": "snapshotId",
          "type": "uint256"
        }
      ],
      "name": "balanceOfAt",
      "outputs": [
        {
          "internalType": "uint256",
          "name": "",
          "type": "uint256"
        }
      ],
      "stateMutability": "view",
      "type": "function"
    },
    {
      "inputs": [
        {
          "internalType": "address",
          "name": "account",
          "type": "address"
        },
        {
          "internalType": "uint256",
          "name": "amount",
          "type": "uint256"
        }
      ],
      "name": "burn",
      "outputs": [],
      "stateMutability": "nonpayable",
      "type": "function"
    },
    {
      "inputs": [],
      "name": "decimals",
      "outputs": [
        {
          "internalType": "uint8",
          "name": "",
          "type": "uint8"
        }
      ],
      "stateMutability": "view",
      "type": "function"
    },
    {
      "inputs": [
        {
          "internalType": "address",
          "name": "spender",
          "type": "address"
        },
        {
          "internalType": "uint256",
          "name": "subtractedValue",
          "type": "uint256"
        }
      ],
      "name": "decreaseAllowance",
      "outputs": [
        {
          "internalType": "bool",
          "name": "",
          "type": "bool"
        }
      ],
      "stateMutability": "nonpayable",
      "type": "function"
    },
    {
      "inputs": [],
      "name": "getCurrentSnapshotId",
      "outputs": [
        {
          "internalType": "uint256",
          "name": "",
          "type": "uint256"
        }
      ],
      "stateMutability": "view",
      "type": "function"
    },
    {
      "inputs": [
        {
          "internalType": "address",
          "name": "spender",
          "type": "address"
        },
        {
          "internalType": "uint256",
          "name": "addedValue",
          "type": "uint256"
        }
      ],
      "name": "increaseAllowance",
      "outputs": [
        {
          "internalType": "bool",
          "name": "",
          "type": "bool"
        }
      ],
      "stateMutability": "nonpayable",
      "type": "function"
    },
    {
      "inputs": [
        {
          "internalType": "address",
          "name": "recipient",
          "type": "address"
        },
        {
          "internalType": "uint256",
          "name": "amount",
          "type": "uint256"
        }
      ],
      "name": "mint",
      "outputs": [],
      "stateMutability": "nonpayable",
      "type": "function"
    },
    {
      "inputs": [],
      "name": "name",
      "outputs": [
        {
          "internalType": "string",
          "name": "",
          "type": "string"
        }
      ],
      "stateMutability": "view",
      "type": "function"
    },
    {
      "inputs": [
        {
          "internalType": "address",
          "name": "owner",
          "type": "address"
        }
      ],
      "name": "nonces",
      "outputs": [
        {
          "internalType": "uint256",
          "name": "",
          "type": "uint256"
        }
      ],
      "stateMutability": "view",
      "type": "function"
    },
    {
      "inputs": [],
      "name": "owner",
      "outputs": [
        {
          "internalType": "address",
          "name": "",
          "type": "address"
        }
      ],
      "stateMutability": "view",
      "type": "function"
    },
    {
      "inputs": [],
      "name": "pause",
      "outputs": [],
      "stateMutability": "nonpayable",
      "type": "function"
    },
    {
      "inputs": [],
      "name": "paused",
      "outputs": [
        {
          "internalType": "bool",
          "name": "",
          "type": "bool"
        }
      ],
      "stateMutability": "view",
      "type": "function"
    },
    {
      "inputs": [
        {
          "internalType": "address",
          "name": "owner",
          "type": "address"
        },
        {
          "internalType": "address",
          "name": "spender",
          "type": "address"
        },
        {
          "internalType": "uint256",
          "name": "value",
          "type": "uint256"
        },
        {
          "internalType": "uint256",
          "name": "deadline",
          "type": "uint256"
        },
        {
          "internalType": "uint8",
          "name": "v",
          "type": "uint8"
        },
        {
          "internalType": "bytes32",
          "name": "r",
          "type": "bytes32"
        },
        {
          "internalType": "bytes32",
          "name": "s",
          "type": "bytes32"
        }
      ],
      "name": "permit",
      "outputs": [],
      "stateMutability": "nonpayable",
      "type": "function"
    },
    {
      "inputs": [],
      "name": "proxiableUUID",
      "outputs": [
        {
          "internalType": "bytes32",
          "name": "",
          "type": "bytes32"
        }
      ],
      "stateMutability": "view",
      "type": "function"
    },
    {
      "inputs": [],
      "name": "renounceOwnership",
      "outputs": [],
      "stateMutability": "nonpayable",
      "type": "function"
    },
    {
      "inputs": [
        {
          "internalType": "string",
          "name": "name_",
          "type": "string"
        },
        {
          "internalType": "string",
          "name": "symbol_",
          "type": "string"
        }
      ],
      "name": "setUp",
      "outputs": [],
      "stateMutability": "nonpayable",
      "type": "function"
    },
    {
      "inputs": [],
      "name": "snapshot",
      "outputs": [
        {
          "internalType": "uint256",
          "name": "",
          "type": "uint256"
        }
      ],
      "stateMutability": "nonpayable",
      "type": "function"
    },
    {
      "inputs": [],
      "name": "symbol",
      "outputs": [
        {
          "internalType": "string",
          "name": "",
          "type": "string"
        }
      ],
      "stateMutability": "view",
      "type": "function"
    },
    {
      "inputs": [],
      "name": "totalSupply",
      "outputs": [
        {
          "internalType": "uint256",
          "name": "",
          "type": "uint256"
        }
      ],
      "stateMutability": "view",
      "type": "function"
    },
    {
      "inputs": [
        {
          "internalType": "uint256",
          "name": "snapshotId",
          "type": "uint256"
        }
      ],
      "name": "totalSupplyAt",
      "outputs": [
        {
          "internalType": "uint256",
          "name": "",
          "type": "uint256"
        }
      ],
      "stateMutability": "view",
      "type": "function"
    },
    {
      "inputs": [
        {
          "internalType": "address",
          "name": "to",
          "type": "address"
        },
        {
          "internalType": "uint256",
          "name": "amount",
          "type": "uint256"
        }
      ],
      "name": "transfer",
      "outputs": [
        {
          "internalType": "bool",
          "name": "",
          "type": "bool"
        }
      ],
      "stateMutability": "nonpayable",
      "type": "function"
    },
    {
      "inputs": [
        {
          "internalType": "address",
          "name": "from",
          "type": "address"
        },
        {
          "internalType": "address",
          "name": "to",
          "type": "address"
        },
        {
          "internalType": "uint256",
          "name": "amount",
          "type": "uint256"
        }
      ],
      "name": "transferFrom",
      "outputs": [
        {
          "internalType": "bool",
          "name": "",
          "type": "bool"
        }
      ],
      "stateMutability": "nonpayable",
      "type": "function"
    },
    {
      "inputs": [
        {
          "internalType": "address",
          "name": "newOwner",
          "type": "address"
        }
      ],
      "name": "transferOwnership",
      "outputs": [],
      "stateMutability": "nonpayable",
      "type": "function"
    },
    {
      "inputs": [],
      "name": "unpause",
      "outputs": [],
      "stateMutability": "nonpayable",
      "type": "function"
    },
    {
      "inputs": [
        {
          "internalType": "address",
          "name": "newImplementation",
          "type": "address"
        }
      ],
      "name": "upgradeTo",
      "outputs": [],
      "stateMutability": "nonpayable",
      "type": "function"
    },
    {
      "inputs": [
        {
          "internalType": "address",
          "name": "newImplementation",
          "type": "address"
        },
        {
          "internalType": "bytes",
          "name": "data",
          "type": "bytes"
        }
      ],
      "name": "upgradeToAndCall",
      "outputs": [],
      "stateMutability": "payable",
      "type": "function"
    }
  ],
  "transactionHash": "0x07b4a0525ce7b8a1ac2990f43405948e4980006fdcc9c98fec7eeb332da7eb11",
  "args": [],
  "numDeployments": 1,
  "solcInputHash": "d833871936d16a85338aeeebf4887b62",
  "bytecode": "0x60a06040523060601b6080523480156200001857600080fd5b506200002362000029565b620000eb565b600054610100900460ff1615620000965760405162461bcd60e51b815260206004820152602760248201527f496e697469616c697a61626c653a20636f6e747261637420697320696e697469604482015266616c697a696e6760c81b606482015260840160405180910390fd5b60005460ff9081161015620000e9576000805460ff191660ff9081179091556040519081527f7f26b83ff96e1f2b6a682f133852f6798a09c465da95921460cefb38474024989060200160405180910390a15b565b60805160601c61288a62000126600039600081816106480152818161069101528181610838015281816108780152610907015261288a6000f3fe6080604052600436106101cd5760003560e01c80635c975abb116100f75780639711715a11610095578063a9059cbb11610064578063a9059cbb146104dc578063d505accf146104fc578063dd62ed3e1461051c578063f2fde38b1461053c57600080fd5b80639711715a14610467578063981b24d01461047c5780639dc29fac1461049c578063a457c2d7146104bc57600080fd5b80637ecebe00116100d15780637ecebe00146103f45780638456cb59146104145780638da5cb5b1461042957806395d89b411461045257600080fd5b80635c975abb1461039157806370a08231146103a9578063715018a6146103df57600080fd5b8063395093511161016f5780634f1ef2861161013e5780634f1ef2861461033457806352d1902d146103475780635439ad861461035c578063562d190d1461037157600080fd5b806339509351146102bf5780633f4ba83a146102df57806340c10f19146102f45780634ee2cd7e1461031457600080fd5b806323b872dd116101ab57806323b872dd1461024c578063313ce5671461026c5780633644e515146102885780633659cfe61461029d57600080fd5b806306fdde03146101d2578063095ea7b3146101fd57806318160ddd1461022d575b600080fd5b3480156101de57600080fd5b506101e761055c565b6040516101f491906125ed565b60405180910390f35b34801561020957600080fd5b5061021d61021836600461251b565b6105ee565b60405190151581526020016101f4565b34801561023957600080fd5b506035545b6040519081526020016101f4565b34801561025857600080fd5b5061021d61026736600461240a565b610608565b34801561027857600080fd5b50604051601281526020016101f4565b34801561029457600080fd5b5061023e61062e565b3480156102a957600080fd5b506102bd6102b83660046123bc565b61063d565b005b3480156102cb57600080fd5b5061021d6102da36600461251b565b610726565b3480156102eb57600080fd5b506102bd610748565b34801561030057600080fd5b506102bd61030f36600461251b565b61075a565b34801561032057600080fd5b5061023e61032f36600461251b565b6107d4565b6102bd6103423660046124b9565b61082d565b34801561035357600080fd5b5061023e6108fa565b34801561036857600080fd5b5061023e6109ad565b34801561037d57600080fd5b506102bd61038c36600461255e565b6109b7565b34801561039d57600080fd5b5060fe5460ff1661021d565b3480156103b557600080fd5b5061023e6103c43660046123bc565b6001600160a01b031660009081526033602052604090205490565b3480156103eb57600080fd5b506102bd610b79565b34801561040057600080fd5b5061023e61040f3660046123bc565b610b8b565b34801561042057600080fd5b506102bd610ba9565b34801561043557600080fd5b50610130546040516001600160a01b0390911681526020016101f4565b34801561045e57600080fd5b506101e7610bb9565b34801561047357600080fd5b5061023e610bc8565b34801561048857600080fd5b5061023e6104973660046125b8565b610bda565b3480156104a857600080fd5b506102bd6104b736600461251b565b610c05565b3480156104c857600080fd5b5061021d6104d736600461251b565b610c17565b3480156104e857600080fd5b5061021d6104f736600461251b565b610c9d565b34801561050857600080fd5b506102bd610517366004612446565b610cab565b34801561052857600080fd5b5061023e6105373660046123d7565b610e0f565b34801561054857600080fd5b506102bd6105573660046123bc565b610e3a565b60606036805461056b90612780565b80601f016020809104026020016040519081016040528092919081815260200182805461059790612780565b80156105e45780601f106105b9576101008083540402835291602001916105e4565b820191906000526020600020905b8154815290600101906020018083116105c757829003601f168201915b5050505050905090565b6000336105fc818585610eb0565b60019150505b92915050565b600033610616858285610fd4565b61062185858561104e565b60019150505b9392505050565b6000610638611204565b905090565b306001600160a01b037f000000000000000000000000000000000000000000000000000000000000000016141561068f5760405162461bcd60e51b815260040161068690612620565b60405180910390fd5b7f00000000000000000000000000000000000000000000000000000000000000006001600160a01b03166106d860008051602061280e833981519152546001600160a01b031690565b6001600160a01b0316146106fe5760405162461bcd60e51b81526004016106869061266c565b6107078161127f565b6040805160008082526020820190925261072391839190611287565b50565b6000336105fc8185856107398383610e0f565b6107439190612703565b610eb0565b610750611401565b61075861145c565b565b610762611401565b61076f600260001961271b565b8161077960355490565b6107839190612703565b11156107c65760405162461bcd60e51b81526020600482015260126024820152711b1bdbdd0e8818d85c08195e18d95959195960721b6044820152606401610686565b6107d082826114ae565b5050565b6001600160a01b0382166000908152606560205260408120819081906107fb90859061157b565b9150915081610822576001600160a01b038516600090815260336020526040902054610824565b805b95945050505050565b306001600160a01b037f00000000000000000000000000000000000000000000000000000000000000001614156108765760405162461bcd60e51b815260040161068690612620565b7f00000000000000000000000000000000000000000000000000000000000000006001600160a01b03166108bf60008051602061280e833981519152546001600160a01b031690565b6001600160a01b0316146108e55760405162461bcd60e51b81526004016106869061266c565b6108ee8261127f565b6107d082826001611287565b6000306001600160a01b037f0000000000000000000000000000000000000000000000000000000000000000161461099a5760405162461bcd60e51b815260206004820152603860248201527f555550535570677261646561626c653a206d757374206e6f742062652063616c60448201527f6c6564207468726f7567682064656c656761746563616c6c00000000000000006064820152608401610686565b5060008051602061280e83398151915290565b6000610638611672565b600054610100900460ff16158080156109d75750600054600160ff909116105b806109f15750303b1580156109f1575060005460ff166001145b610a545760405162461bcd60e51b815260206004820152602e60248201527f496e697469616c697a61626c653a20636f6e747261637420697320616c72656160448201526d191e481a5b9a5d1a585b1a5e995960921b6064820152608401610686565b6000805460ff191660011790558015610a77576000805461ff0019166101001790555b8251610ab85760405162461bcd60e51b815260206004820152601060248201526f6c6f6f743a206e616d6520656d70747960801b6044820152606401610686565b8151610afb5760405162461bcd60e51b81526020600482015260126024820152716c6f6f743a2073796d626f6c20656d70747960701b6044820152606401610686565b610b05838361167d565b610b0e836116ae565b610b166116f8565b610b1e611727565b610b2661174e565b610b2e611727565b8015610b74576000805461ff0019169055604051600181527f7f26b83ff96e1f2b6a682f133852f6798a09c465da95921460cefb38474024989060200160405180910390a15b505050565b610b81611401565b610758600061177d565b6001600160a01b038116600090815260cb6020526040812054610602565b610bb1611401565b6107586117d0565b60606037805461056b90612780565b6000610bd2611401565b61063861180d565b6000806000610bea84606661157b565b9150915081610bfb57603554610bfd565b805b949350505050565b610c0d611401565b6107d08282611867565b60003381610c258286610e0f565b905083811015610c855760405162461bcd60e51b815260206004820152602560248201527f45524332303a2064656372656173656420616c6c6f77616e63652062656c6f77604482015264207a65726f60d81b6064820152608401610686565b610c928286868403610eb0565b506001949350505050565b6000336105fc81858561104e565b83421115610cfb5760405162461bcd60e51b815260206004820152601d60248201527f45524332305065726d69743a206578706972656420646561646c696e650000006044820152606401610686565b60007f6e71edae12b1b97f4d1f60370fef10105fa2faae0126114a169c64845d6126c9888888610d2a8c6119a7565b6040805160208101969096526001600160a01b0394851690860152929091166060840152608083015260a082015260c0810186905260e0016040516020818303038152906040528051906020012090506000610d85826119cf565b90506000610d9582878787611a1d565b9050896001600160a01b0316816001600160a01b031614610df85760405162461bcd60e51b815260206004820152601e60248201527f45524332305065726d69743a20696e76616c6964207369676e617475726500006044820152606401610686565b610e038a8a8a610eb0565b50505050505050505050565b6001600160a01b03918216600090815260346020908152604080832093909416825291909152205490565b610e42611401565b6001600160a01b038116610ea75760405162461bcd60e51b815260206004820152602660248201527f4f776e61626c653a206e6577206f776e657220697320746865207a65726f206160448201526564647265737360d01b6064820152608401610686565b6107238161177d565b6001600160a01b038316610f125760405162461bcd60e51b8152602060048201526024808201527f45524332303a20617070726f76652066726f6d20746865207a65726f206164646044820152637265737360e01b6064820152608401610686565b6001600160a01b038216610f735760405162461bcd60e51b815260206004820152602260248201527f45524332303a20617070726f766520746f20746865207a65726f206164647265604482015261737360f01b6064820152608401610686565b6001600160a01b0383811660008181526034602090815260408083209487168084529482529182902085905590518481527f8c5be1e5ebec7d5bd14f71427d1e84f3dd0314c0f7b2291e5b200ac8c7c3b925910160405180910390a3505050565b6000610fe08484610e0f565b90506000198114611048578181101561103b5760405162461bcd60e51b815260206004820152601d60248201527f45524332303a20696e73756666696369656e7420616c6c6f77616e63650000006044820152606401610686565b6110488484848403610eb0565b50505050565b6001600160a01b0383166110b25760405162461bcd60e51b815260206004820152602560248201527f45524332303a207472616e736665722066726f6d20746865207a65726f206164604482015264647265737360d81b6064820152608401610686565b6001600160a01b0382166111145760405162461bcd60e51b815260206004820152602360248201527f45524332303a207472616e7366657220746f20746865207a65726f206164647260448201526265737360e81b6064820152608401610686565b61111f838383611a45565b6001600160a01b038316600090815260336020526040902054818110156111975760405162461bcd60e51b815260206004820152602660248201527f45524332303a207472616e7366657220616d6f756e7420657863656564732062604482015265616c616e636560d01b6064820152608401610686565b6001600160a01b0380851660008181526033602052604080822086860390559286168082529083902080548601905591517fddf252ad1be2c89b69c2b068fc378daa952ba7f163c4a11628f55a4df523b3ef906111f79086815260200190565b60405180910390a3611048565b60006106387f8b73c3c69bb8fe3d512ecc4cf759cc79239f7b179b0ffacaa9a75d522b39400f61123360975490565b6098546040805160208101859052908101839052606081018290524660808201523060a082015260009060c0016040516020818303038152906040528051906020012090509392505050565b610723611401565b7f4910fdfa16fed3260ed0e7147f7cc6da11a60208b5b9406d12a635614ffd91435460ff16156112ba57610b7483611ad3565b826001600160a01b03166352d1902d6040518163ffffffff1660e01b815260040160206040518083038186803b1580156112f357600080fd5b505afa925050508015611323575060408051601f3d908101601f1916820190925261132091810190612545565b60015b6113865760405162461bcd60e51b815260206004820152602e60248201527f45524331393637557067726164653a206e657720696d706c656d656e7461746960448201526d6f6e206973206e6f74205555505360901b6064820152608401610686565b60008051602061280e83398151915281146113f55760405162461bcd60e51b815260206004820152602960248201527f45524331393637557067726164653a20756e737570706f727465642070726f786044820152681a58589b195555525160ba1b6064820152608401610686565b50610b74838383611b6f565b610130546001600160a01b031633146107585760405162461bcd60e51b815260206004820181905260248201527f4f776e61626c653a2063616c6c6572206973206e6f7420746865206f776e65726044820152606401610686565b611464611b94565b60fe805460ff191690557f5db9ee0a495bf2e6ff9c91a7834c1ba4fdd244a5e8aa4e537bd38aeae4b073aa335b6040516001600160a01b03909116815260200160405180910390a1565b6001600160a01b0382166115045760405162461bcd60e51b815260206004820152601f60248201527f45524332303a206d696e7420746f20746865207a65726f2061646472657373006044820152606401610686565b61151060008383611a45565b80603560008282546115229190612703565b90915550506001600160a01b0382166000818152603360209081526040808320805486019055518481527fddf252ad1be2c89b69c2b068fc378daa952ba7f163c4a11628f55a4df523b3ef910160405180910390a35050565b600080600084116115c75760405162461bcd60e51b815260206004820152601660248201527504552433230536e617073686f743a20696420697320360541b6044820152606401610686565b6115cf611672565b84111561161e5760405162461bcd60e51b815260206004820152601d60248201527f4552433230536e617073686f743a206e6f6e6578697374656e742069640000006044820152606401610686565b600061162a8486611bdd565b845490915081141561164357600080925092505061166b565b600184600101828154811061165a5761165a6127e1565b906000526020600020015492509250505b9250929050565b600061063860685490565b600054610100900460ff166116a45760405162461bcd60e51b8152600401610686906126b8565b6107d08282611c88565b600054610100900460ff166116d55760405162461bcd60e51b8152600401610686906126b8565b61072381604051806040016040528060018152602001603160f81b815250611cd6565b600054610100900460ff1661171f5760405162461bcd60e51b8152600401610686906126b8565b610758611d17565b600054610100900460ff166107585760405162461bcd60e51b8152600401610686906126b8565b600054610100900460ff166117755760405162461bcd60e51b8152600401610686906126b8565b610758611d4a565b61013080546001600160a01b038381166001600160a01b0319831681179093556040519116919082907f8be0079c531659141344cd1fd0a4f28419497f9722a3daafe3b4186f6b6457e090600090a35050565b6117d8611d7a565b60fe805460ff191660011790557f62e78cea01bee320cd4e420270b5ea74000d11b0c9f74754ebdbfc544b05a2586114913390565b600061181d606880546001019055565b6000611827611672565b90507f8030e83b04d87bef53480e26263266d6ca66863aa8506aca6f2559d18aa1cb678160405161185a91815260200190565b60405180910390a1919050565b6001600160a01b0382166118c75760405162461bcd60e51b815260206004820152602160248201527f45524332303a206275726e2066726f6d20746865207a65726f206164647265736044820152607360f81b6064820152608401610686565b6118d382600083611a45565b6001600160a01b038216600090815260336020526040902054818110156119475760405162461bcd60e51b815260206004820152602260248201527f45524332303a206275726e20616d6f756e7420657863656564732062616c616e604482015261636560f01b6064820152608401610686565b6001600160a01b03831660008181526033602090815260408083208686039055603580548790039055518581529192917fddf252ad1be2c89b69c2b068fc378daa952ba7f163c4a11628f55a4df523b3ef910160405180910390a3505050565b6001600160a01b038116600090815260cb602052604090208054600181018255905b50919050565b60006106026119dc611204565b8360405161190160f01b6020820152602281018390526042810182905260009060620160405160208183030381529060405280519060200120905092915050565b6000806000611a2e87878787611dc0565b91509150611a3b81611e84565b5095945050505050565b611a50838383611fd2565b6001600160a01b0383161580611a835750610130546001600160a01b031633148015611a8357506001600160a01b038216155b80611a91575060fe5460ff16155b610b745760405162461bcd60e51b81526020600482015260136024820152726c6f6f743a20217472616e7366657261626c6560681b6044820152606401610686565b6001600160a01b0381163b611b405760405162461bcd60e51b815260206004820152602d60248201527f455243313936373a206e657720696d706c656d656e746174696f6e206973206e60448201526c1bdd08184818dbdb9d1c9858dd609a1b6064820152608401610686565b60008051602061280e83398151915280546001600160a01b0319166001600160a01b0392909216919091179055565b611b788361201a565b600082511180611b855750805b15610b7457611048838361205a565b60fe5460ff166107585760405162461bcd60e51b815260206004820152601460248201527314185d5cd8589b194e881b9bdd081c185d5cd95960621b6044820152606401610686565b8154600090611bee57506000610602565b82546000905b80821015611c3b576000611c088383612145565b60008781526020902090915085908201541115611c2757809150611c35565b611c32816001612703565b92505b50611bf4565b600082118015611c67575083611c6486611c5660018661273d565b600091825260209091200190565b54145b15611c8057611c7760018361273d565b92505050610602565b509050610602565b600054610100900460ff16611caf5760405162461bcd60e51b8152600401610686906126b8565b8151611cc2906036906020850190612276565b508051610b74906037906020840190612276565b600054610100900460ff16611cfd5760405162461bcd60e51b8152600401610686906126b8565b815160209283012081519190920120609791909155609855565b600054610100900460ff16611d3e5760405162461bcd60e51b8152600401610686906126b8565b60fe805460ff19169055565b600054610100900460ff16611d715760405162461bcd60e51b8152600401610686906126b8565b6107583361177d565b60fe5460ff16156107585760405162461bcd60e51b815260206004820152601060248201526f14185d5cd8589b194e881c185d5cd95960821b6044820152606401610686565b6000807f7fffffffffffffffffffffffffffffff5d576e7357a4501ddfe92f46681b20a0831115611df75750600090506003611e7b565b6040805160008082526020820180845289905260ff881692820192909252606081018690526080810185905260019060a0016020604051602081039080840390855afa158015611e4b573d6000803e3d6000fd5b5050604051601f1901519150506001600160a01b038116611e7457600060019250925050611e7b565b9150600090505b94509492505050565b6000816004811115611e9857611e986127cb565b1415611ea15750565b6001816004811115611eb557611eb56127cb565b1415611f035760405162461bcd60e51b815260206004820152601860248201527f45434453413a20696e76616c6964207369676e617475726500000000000000006044820152606401610686565b6002816004811115611f1757611f176127cb565b1415611f655760405162461bcd60e51b815260206004820152601f60248201527f45434453413a20696e76616c6964207369676e6174757265206c656e677468006044820152606401610686565b6003816004811115611f7957611f796127cb565b14156107235760405162461bcd60e51b815260206004820152602260248201527f45434453413a20696e76616c6964207369676e6174757265202773272076616c604482015261756560f01b6064820152608401610686565b6001600160a01b038316611ff157611fe982612160565b610b74612193565b6001600160a01b03821661200857611fe983612160565b61201183612160565b610b7482612160565b61202381611ad3565b6040516001600160a01b038216907fbc7cd75a20ee27fd9adebab32041f755214dbc6bffa90cc0225b39da2e5c2d3b90600090a250565b60606001600160a01b0383163b6120c25760405162461bcd60e51b815260206004820152602660248201527f416464726573733a2064656c65676174652063616c6c20746f206e6f6e2d636f6044820152651b9d1c9858dd60d21b6064820152608401610686565b600080846001600160a01b0316846040516120dd91906125d1565b600060405180830381855af49150503d8060008114612118576040519150601f19603f3d011682016040523d82523d6000602084013e61211d565b606091505b5091509150610824828260405180606001604052806027815260200161282e602791396121a1565b6000612154600284841861271b565b61062790848416612703565b6001600160a01b038116600090815260656020908152604080832060339092529091205461072391906121ba565b6121ba565b610758606661218e60355490565b606083156121b0575081610627565b6106278383612204565b60006121c4611672565b9050806121d08461222e565b1015610b74578254600180820185556000858152602080822090930193909355938401805494850181558252902090910155565b8151156122145781518083602001fd5b8060405162461bcd60e51b815260040161068691906125ed565b805460009061223f57506000919050565b8154829061224f9060019061273d565b8154811061225f5761225f6127e1565b90600052602060002001549050919050565b919050565b82805461228290612780565b90600052602060002090601f0160209004810192826122a457600085556122ea565b82601f106122bd57805160ff19168380011785556122ea565b828001600101855582156122ea579182015b828111156122ea5782518255916020019190600101906122cf565b506122f69291506122fa565b5090565b5b808211156122f657600081556001016122fb565b600067ffffffffffffffff8084111561232a5761232a6127f7565b604051601f8501601f19908116603f01168101908282118183101715612352576123526127f7565b8160405280935085815286868601111561236b57600080fd5b858560208301376000602087830101525050509392505050565b80356001600160a01b038116811461227157600080fd5b600082601f8301126123ad57600080fd5b6106278383356020850161230f565b6000602082840312156123ce57600080fd5b61062782612385565b600080604083850312156123ea57600080fd5b6123f383612385565b915061240160208401612385565b90509250929050565b60008060006060848603121561241f57600080fd5b61242884612385565b925061243660208501612385565b9150604084013590509250925092565b600080600080600080600060e0888a03121561246157600080fd5b61246a88612385565b965061247860208901612385565b95506040880135945060608801359350608088013560ff8116811461249c57600080fd5b9699959850939692959460a0840135945060c09093013592915050565b600080604083850312156124cc57600080fd5b6124d583612385565b9150602083013567ffffffffffffffff8111156124f157600080fd5b8301601f8101851361250257600080fd5b6125118582356020840161230f565b9150509250929050565b6000806040838503121561252e57600080fd5b61253783612385565b946020939093013593505050565b60006020828403121561255757600080fd5b5051919050565b6000806040838503121561257157600080fd5b823567ffffffffffffffff8082111561258957600080fd5b6125958683870161239c565b935060208501359150808211156125ab57600080fd5b506125118582860161239c565b6000602082840312156125ca57600080fd5b5035919050565b600082516125e3818460208701612754565b9190910192915050565b602081526000825180602084015261260c816040850160208701612754565b601f01601f19169190910160400192915050565b6020808252602c908201527f46756e6374696f6e206d7573742062652063616c6c6564207468726f7567682060408201526b19195b1959d85d1958d85b1b60a21b606082015260800190565b6020808252602c908201527f46756e6374696f6e206d7573742062652063616c6c6564207468726f7567682060408201526b6163746976652070726f787960a01b606082015260800190565b6020808252602b908201527f496e697469616c697a61626c653a20636f6e7472616374206973206e6f74206960408201526a6e697469616c697a696e6760a81b606082015260800190565b60008219821115612716576127166127b5565b500190565b60008261273857634e487b7160e01b600052601260045260246000fd5b500490565b60008282101561274f5761274f6127b5565b500390565b60005b8381101561276f578181015183820152602001612757565b838111156110485750506000910152565b600181811c9082168061279457607f821691505b602082108114156119c957634e487b7160e01b600052602260045260246000fd5b634e487b7160e01b600052601160045260246000fd5b634e487b7160e01b600052602160045260246000fd5b634e487b7160e01b600052603260045260246000fd5b634e487b7160e01b600052604160045260246000fdfe360894a13ba1a3210667c828492db98dca3e2076cc3735a920a3ca505d382bbc416464726573733a206c6f772d6c6576656c2064656c65676174652063616c6c206661696c6564a26469706673582212204196986f131ab75e482c8e8e87b668e2e5b20fa8d630b5bb7623e2871e6c4b6f64736f6c63430008070033",
  "devdoc": {
    "kind": "dev",
    "methods": {
      "DOMAIN_SEPARATOR()": {
        "details": "See {IERC20Permit-DOMAIN_SEPARATOR}."
      },
      "allowance(address,address)": {
        "details": "See {IERC20-allowance}."
      },
      "approve(address,uint256)": {
        "details": "See {IERC20-approve}. NOTE: If `amount` is the maximum `uint256`, the allowance is not updated on `transferFrom`. This is semantically equivalent to an infinite approval. Requirements: - `spender` cannot be the zero address."
      },
      "balanceOf(address)": {
        "details": "See {IERC20-balanceOf}."
      },
      "balanceOfAt(address,uint256)": {
        "details": "Retrieves the balance of `account` at the time `snapshotId` was created."
      },
      "burn(address,uint256)": {
        "params": {
          "account": "Address to lose loot",
          "amount": "Amount to burn"
        }
      },
      "decimals()": {
        "details": "Returns the number of decimals used to get its user representation. For example, if `decimals` equals `2`, a balance of `505` tokens should be displayed to a user as `5.05` (`505 / 10 ** 2`). Tokens usually opt for a value of 18, imitating the relationship between Ether and Wei. This is the value {ERC20} uses, unless this function is overridden; NOTE: This information is only used for _display_ purposes: it in no way affects any of the arithmetic of the contract, including {IERC20-balanceOf} and {IERC20-transfer}."
      },
      "decreaseAllowance(address,uint256)": {
        "details": "Atomically decreases the allowance granted to `spender` by the caller. This is an alternative to {approve} that can be used as a mitigation for problems described in {IERC20-approve}. Emits an {Approval} event indicating the updated allowance. Requirements: - `spender` cannot be the zero address. - `spender` must have allowance for the caller of at least `subtractedValue`."
      },
      "increaseAllowance(address,uint256)": {
        "details": "Atomically increases the allowance granted to `spender` by the caller. This is an alternative to {approve} that can be used as a mitigation for problems described in {IERC20-approve}. Emits an {Approval} event indicating the updated allowance. Requirements: - `spender` cannot be the zero address."
      },
      "mint(address,uint256)": {
        "params": {
          "amount": "Amount to mint",
          "recipient": "Address to receive loot"
        }
      },
      "name()": {
        "details": "Returns the name of the token."
      },
      "nonces(address)": {
        "details": "See {IERC20Permit-nonces}."
      },
      "owner()": {
        "details": "Returns the address of the current owner."
      },
      "paused()": {
        "details": "Returns true if the contract is paused, and false otherwise."
      },
      "permit(address,address,uint256,uint256,uint8,bytes32,bytes32)": {
        "details": "See {IERC20Permit-permit}."
      },
      "proxiableUUID()": {
        "details": "Implementation of the ERC1822 {proxiableUUID} function. This returns the storage slot used by the implementation. It is used to validate the implementation's compatibility when performing an upgrade. IMPORTANT: A proxy pointing at a proxiable contract should not be considered proxiable itself, because this risks bricking a proxy that upgrades to it, by delegating to itself until out of gas. Thus it is critical that this function revert if invoked through a proxy. This is guaranteed by the `notDelegated` modifier."
      },
      "renounceOwnership()": {
        "details": "Leaves the contract without owner. It will not be possible to call `onlyOwner` functions anymore. Can only be called by the current owner. NOTE: Renouncing ownership will leave the contract without an owner, thereby removing any functionality that is only available to the owner."
      },
      "setUp(string,string)": {
        "details": "initializer should prevent this from being called again",
        "params": {
          "name_": "Name for ERC20 token trackers",
          "symbol_": "Symbol for ERC20 token trackers"
        }
      },
      "symbol()": {
        "details": "Returns the symbol of the token, usually a shorter version of the name."
      },
      "totalSupply()": {
        "details": "See {IERC20-totalSupply}."
      },
      "totalSupplyAt(uint256)": {
        "details": "Retrieves the total supply at the time `snapshotId` was created."
      },
      "transfer(address,uint256)": {
        "details": "See {IERC20-transfer}. Requirements: - `to` cannot be the zero address. - the caller must have a balance of at least `amount`."
      },
      "transferFrom(address,address,uint256)": {
        "details": "See {IERC20-transferFrom}. Emits an {Approval} event indicating the updated allowance. This is not required by the EIP. See the note at the beginning of {ERC20}. NOTE: Does not update the allowance if the current allowance is the maximum `uint256`. Requirements: - `from` and `to` cannot be the zero address. - `from` must have a balance of at least `amount`. - the caller must have allowance for ``from``'s tokens of at least `amount`."
      },
      "transferOwnership(address)": {
        "details": "Transfers ownership of the contract to a new account (`newOwner`). Can only be called by the current owner."
      },
      "upgradeTo(address)": {
        "details": "Upgrade the implementation of the proxy to `newImplementation`. Calls {_authorizeUpgrade}. Emits an {Upgraded} event."
      },
      "upgradeToAndCall(address,bytes)": {
        "details": "Upgrade the implementation of the proxy to `newImplementation`, and subsequently execute the function call encoded in `data`. Calls {_authorizeUpgrade}. Emits an {Upgraded} event."
      }
    },
    "version": 1
  },
  "userdoc": {
    "kind": "user",
    "methods": {
      "burn(address,uint256)": {
        "notice": "Baal-only function to burn loot."
      },
      "getCurrentSnapshotId()": {
        "notice": "get current SnapshotId"
      },
      "mint(address,uint256)": {
        "notice": "Baal-only function to mint loot."
      },
      "pause()": {
        "notice": "Baal-only function to pause shares."
      },
      "setUp(string,string)": {
        "notice": "Configure loot - called by Baal on summon"
      },
      "snapshot()": {
        "notice": "Allows baal to create a snapshot"
      },
      "unpause()": {
        "notice": "Baal-only function to pause shares."
      }
    },
    "version": 1
  },
  "storageLayout": {
    "storage": [
      {
        "astId": 4454,
        "contract": "contracts/LootERC20.sol:Loot",
        "label": "_initialized",
        "offset": 0,
        "slot": "0",
        "type": "t_uint8"
      },
      {
        "astId": 4457,
        "contract": "contracts/LootERC20.sol:Loot",
        "label": "_initializing",
        "offset": 1,
        "slot": "0",
        "type": "t_bool"
      },
      {
        "astId": 6723,
        "contract": "contracts/LootERC20.sol:Loot",
        "label": "__gap",
        "offset": 0,
        "slot": "1",
        "type": "t_array(t_uint256)50_storage"
      },
      {
        "astId": 4971,
        "contract": "contracts/LootERC20.sol:Loot",
        "label": "_balances",
        "offset": 0,
        "slot": "51",
        "type": "t_mapping(t_address,t_uint256)"
      },
      {
        "astId": 4977,
        "contract": "contracts/LootERC20.sol:Loot",
        "label": "_allowances",
        "offset": 0,
        "slot": "52",
        "type": "t_mapping(t_address,t_mapping(t_address,t_uint256))"
      },
      {
        "astId": 4979,
        "contract": "contracts/LootERC20.sol:Loot",
        "label": "_totalSupply",
        "offset": 0,
        "slot": "53",
        "type": "t_uint256"
      },
      {
        "astId": 4981,
        "contract": "contracts/LootERC20.sol:Loot",
        "label": "_name",
        "offset": 0,
        "slot": "54",
        "type": "t_string_storage"
      },
      {
        "astId": 4983,
        "contract": "contracts/LootERC20.sol:Loot",
        "label": "_symbol",
        "offset": 0,
        "slot": "55",
        "type": "t_string_storage"
      },
      {
        "astId": 5563,
        "contract": "contracts/LootERC20.sol:Loot",
        "label": "__gap",
        "offset": 0,
        "slot": "56",
        "type": "t_array(t_uint256)45_storage"
      },
      {
        "astId": 5685,
        "contract": "contracts/LootERC20.sol:Loot",
        "label": "_accountBalanceSnapshots",
        "offset": 0,
        "slot": "101",
        "type": "t_mapping(t_address,t_struct(Snapshots)5680_storage)"
      },
      {
        "astId": 5688,
        "contract": "contracts/LootERC20.sol:Loot",
        "label": "_totalSupplySnapshots",
        "offset": 0,
        "slot": "102",
        "type": "t_struct(Snapshots)5680_storage"
      },
      {
        "astId": 5691,
        "contract": "contracts/LootERC20.sol:Loot",
        "label": "_currentSnapshotId",
        "offset": 0,
        "slot": "104",
        "type": "t_struct(Counter)6730_storage"
      },
      {
        "astId": 5989,
        "contract": "contracts/LootERC20.sol:Loot",
        "label": "__gap",
        "offset": 0,
        "slot": "105",
        "type": "t_array(t_uint256)46_storage"
      },
      {
        "astId": 7403,
        "contract": "contracts/LootERC20.sol:Loot",
        "label": "_HASHED_NAME",
        "offset": 0,
        "slot": "151",
        "type": "t_bytes32"
      },
      {
        "astId": 7405,
        "contract": "contracts/LootERC20.sol:Loot",
        "label": "_HASHED_VERSION",
        "offset": 0,
        "slot": "152",
        "type": "t_bytes32"
      },
      {
        "astId": 7543,
        "contract": "contracts/LootERC20.sol:Loot",
        "label": "__gap",
        "offset": 0,
        "slot": "153",
        "type": "t_array(t_uint256)50_storage"
      },
      {
        "astId": 6041,
        "contract": "contracts/LootERC20.sol:Loot",
        "label": "_nonces",
        "offset": 0,
        "slot": "203",
        "type": "t_mapping(t_address,t_struct(Counter)6730_storage)"
      },
      {
        "astId": 6049,
        "contract": "contracts/LootERC20.sol:Loot",
        "label": "_PERMIT_TYPEHASH_DEPRECATED_SLOT",
        "offset": 0,
        "slot": "204",
        "type": "t_bytes32"
      },
      {
        "astId": 6205,
        "contract": "contracts/LootERC20.sol:Loot",
        "label": "__gap",
        "offset": 0,
        "slot": "205",
        "type": "t_array(t_uint256)49_storage"
      },
      {
        "astId": 4773,
        "contract": "contracts/LootERC20.sol:Loot",
        "label": "_paused",
        "offset": 0,
        "slot": "254",
        "type": "t_bool"
      },
      {
        "astId": 4878,
        "contract": "contracts/LootERC20.sol:Loot",
        "label": "__gap",
        "offset": 0,
        "slot": "255",
        "type": "t_array(t_uint256)49_storage"
      },
      {
        "astId": 3937,
        "contract": "contracts/LootERC20.sol:Loot",
        "label": "_owner",
        "offset": 0,
        "slot": "304",
        "type": "t_address"
      },
      {
        "astId": 4057,
        "contract": "contracts/LootERC20.sol:Loot",
        "label": "__gap",
        "offset": 0,
        "slot": "305",
        "type": "t_array(t_uint256)49_storage"
      },
      {
        "astId": 4436,
        "contract": "contracts/LootERC20.sol:Loot",
        "label": "__gap",
        "offset": 0,
        "slot": "354",
        "type": "t_array(t_uint256)50_storage"
      },
      {
        "astId": 4751,
        "contract": "contracts/LootERC20.sol:Loot",
        "label": "__gap",
        "offset": 0,
        "slot": "404",
        "type": "t_array(t_uint256)50_storage"
      }
    ],
    "types": {
      "t_address": {
        "encoding": "inplace",
        "label": "address",
        "numberOfBytes": "20"
      },
      "t_array(t_uint256)45_storage": {
        "base": "t_uint256",
        "encoding": "inplace",
        "label": "uint256[45]",
        "numberOfBytes": "1440"
      },
      "t_array(t_uint256)46_storage": {
        "base": "t_uint256",
        "encoding": "inplace",
        "label": "uint256[46]",
        "numberOfBytes": "1472"
      },
      "t_array(t_uint256)49_storage": {
        "base": "t_uint256",
        "encoding": "inplace",
        "label": "uint256[49]",
        "numberOfBytes": "1568"
      },
      "t_array(t_uint256)50_storage": {
        "base": "t_uint256",
        "encoding": "inplace",
        "label": "uint256[50]",
        "numberOfBytes": "1600"
      },
      "t_array(t_uint256)dyn_storage": {
        "base": "t_uint256",
        "encoding": "dynamic_array",
        "label": "uint256[]",
        "numberOfBytes": "32"
      },
      "t_bool": {
        "encoding": "inplace",
        "label": "bool",
        "numberOfBytes": "1"
      },
      "t_bytes32": {
        "encoding": "inplace",
        "label": "bytes32",
        "numberOfBytes": "32"
      },
      "t_mapping(t_address,t_mapping(t_address,t_uint256))": {
        "encoding": "mapping",
        "key": "t_address",
        "label": "mapping(address => mapping(address => uint256))",
        "numberOfBytes": "32",
        "value": "t_mapping(t_address,t_uint256)"
      },
      "t_mapping(t_address,t_struct(Counter)6730_storage)": {
        "encoding": "mapping",
        "key": "t_address",
        "label": "mapping(address => struct CountersUpgradeable.Counter)",
        "numberOfBytes": "32",
        "value": "t_struct(Counter)6730_storage"
      },
      "t_mapping(t_address,t_struct(Snapshots)5680_storage)": {
        "encoding": "mapping",
        "key": "t_address",
        "label": "mapping(address => struct ERC20SnapshotUpgradeable.Snapshots)",
        "numberOfBytes": "32",
        "value": "t_struct(Snapshots)5680_storage"
      },
      "t_mapping(t_address,t_uint256)": {
        "encoding": "mapping",
        "key": "t_address",
        "label": "mapping(address => uint256)",
        "numberOfBytes": "32",
        "value": "t_uint256"
      },
      "t_string_storage": {
        "encoding": "bytes",
        "label": "string",
        "numberOfBytes": "32"
      },
      "t_struct(Counter)6730_storage": {
        "encoding": "inplace",
        "label": "struct CountersUpgradeable.Counter",
        "members": [
          {
            "astId": 6729,
            "contract": "contracts/LootERC20.sol:Loot",
            "label": "_value",
            "offset": 0,
            "slot": "0",
            "type": "t_uint256"
          }
        ],
        "numberOfBytes": "32"
      },
      "t_struct(Snapshots)5680_storage": {
        "encoding": "inplace",
        "label": "struct ERC20SnapshotUpgradeable.Snapshots",
        "members": [
          {
            "astId": 5676,
            "contract": "contracts/LootERC20.sol:Loot",
            "label": "ids",
            "offset": 0,
            "slot": "0",
            "type": "t_array(t_uint256)dyn_storage"
          },
          {
            "astId": 5679,
            "contract": "contracts/LootERC20.sol:Loot",
            "label": "values",
            "offset": 0,
            "slot": "1",
            "type": "t_array(t_uint256)dyn_storage"
          }
        ],
        "numberOfBytes": "64"
      },
      "t_uint256": {
        "encoding": "inplace",
        "label": "uint256",
        "numberOfBytes": "32"
      },
      "t_uint8": {
        "encoding": "inplace",
        "label": "uint8",
        "numberOfBytes": "1"
      }
    }
  }
}